:100000000C9462000C9481000C9481000C9481008B
:100010000C9481000C9481000C9481000C9481005C
:100020000C9481000C9481000C9481000C9481004C
:100030000C9481000C9481000C9481000C9481003C
:100040000C9481000C9481000C9481000C9481002C
:100050000C9481000C9481000C9481000C9481001C
:100060000C9481000C9481000C9481000C9481000C
:100070000C9481000C9481000C9481000C948100FC
:100080000C9481000C9481000C948100DF00E60048
:10009000FE0016012E0146015E0176018E01A601C9
:1000A000BE01D601EE010602620239023E0244029E
:1000B0004A02500256025C0262026202620262025C
:1000C0006202620211241FBECFEFD0E4DEBFCDBFBB
:1000D00011E0A0E0B1E0E4EEF4E000E00BBF02C00C
:1000E00007900D92AE30B107D9F721E0AEE0B1E054
:1000F00001C01D92A031B207E1F70E94AC000C9440
:1001000070020C940000CF93DF9300D01F92CDB704
:10011000DEB789837B836A8389818A3031F48A815F
:100120009B81BC018DE00E94830080EC90E0FC018B
:100130008081882F90E080729927892BB1F386EC1B
:1001400090E02981FC01208380E090E00F900F90E7
:100150000F90DF91CF910895CF93DF93CDB7DEB7A6
:1001600081E290E0FC01108282E290E02FEFFC013E
:10017000208384E290E02FEFFC01208385E290E071
:10018000FC0110820E94C500FDCFCF93DF93CDB755
:10019000DEB780910E0190910F01CC01A0E0B0E09C
:1001A00040E050E02DE030E0841B950B2817390724
:1001B00008F443C18A5B9F4FFC010C94670281E005
:1001C00090E090930F0180930E013EC180E290E099
:1001D000FC018081882F90E081709927892B39F468
:1001E00082E090E090930F0180930E012DC181E099
:1001F00090E090930F0180930E0126C180E290E081
:10020000FC018081882F90E081709927892B39F03B
:1002100088E090E090930F0180930E0115C182E079
:1002200090E090930F0180930E010EC180E290E068
:10023000FC018081882F90E081709927892B39F00B
:1002400089E090E090930F0180930E01FDC083E060
:1002500090E090930F0180930E01F6C080E290E051
:10026000FC018081882F90E081709927892B39F0DB
:100270008AE090E090930F0180930E01E5C084E046
:1002800090E090930F0180930E01DEC080E290E039
:10029000FC018081882F90E081709927892B39F0AB
:1002A0008BE090E090930F0180930E01CDC085E02C
:1002B00090E090930F0180930E01C6C080E290E021
:1002C000FC018081882F90E081709927892B39F07B
:1002D0008CE090E090930F0180930E01B5C086E012
:1002E00090E090930F0180930E01AEC080E290E009
:1002F000FC018081882F90E081709927892B39F04B
:100300008DE090E090930F0180930E019DC087E0F7
:1003100090E090930F0180930E0196C080E290E0F0
:10032000FC018081882F90E081709927892B39F416
:1003300083E090E090930F0180930E0185C088E0E8
:1003400090E090930F0180930E017EC080E290E0D8
:10035000FC018081882F90E081709927892B39F4E6
:1003600084E090E090930F0180930E016DC089E0CE
:1003700090E090930F0180930E0166C080E290E0C0
:10038000FC018081882F90E081709927892B39F4B6
:1003900085E090E090930F0180930E0155C08AE0B4
:1003A00090E090930F0180930E014EC080E290E0A8
:1003B000FC018081882F90E081709927892B39F486
:1003C00086E090E090930F0180930E013DC08BE09A
:1003D00090E090930F0180930E0136C080E290E090
:1003E000FC018081882F90E081709927892B39F456
:1003F00087E090E090930F0180930E0125C08CE080
:1004000090E090930F0180930E011EC080E290E077
:10041000FC018081882F90E081709927892B39F425
:1004200081E090E090930F0180930E0106C08DE073
:1004300090E090930F0180930E0181E090E0909303
:100440000F0180930E01000080910E0190910F0129
:10045000CC01A0E0B0E040E050E02DE030E0841BB3
:10046000950B2817390778F18C5A9F4FFC010C9493
:10047000670285E290E0FC01108225C085E290E0F1
:1004800021E0FC0120831FC085E290E023E0FC0115
:10049000208319C085E290E027E0FC01208313C08F
:1004A00085E290E02FE0FC0120830DC085E290E022
:1004B0002FE1FC01208307C085E290E02FE3FC01DF
:1004C000208301C000000000DF91CF910895EE0F5E
:1004D000FF1F0024001C0BBE0790F691E02D09942D
:0404E000F894FFCFBE
:0E04E400000000020000000083000000000085
:00000001FF
